:020000040800F2
:1070000038530020CD70000831BA0008CBA6000824
:107010000000000000000000000000000000000070
:107020000000000000000000000000009BBB000802
:10703000000000000000000033BA0008D5BB0008C3
:10704000DF70000800000000DF700008DF7000083B
:10705000DF700008DF700008DF700008DF700008D4
:1070600000000000B9850008C9850008A185000856
:10707000DF700008DF700008DF700008000000000B
:10708000DF700008DF700008DF700008DF700008A4
:10709000DF700008DF700008DF700008DF70000894
:1070A000DF700008DF700008DF700008DF70000884
:1070B000C1ED00080DEE00080348854600F0C2FC53
:1070C00000480047F5FB000838530020044880477B
:1070D00004480047FEE7FEE7FEE7FEE7FEE7FEE7BF
:1070E000DDBB0008B970000830B50B460146002032
:1070F0002022012409E00D46D5409D4205D31D46BE
:107100009540491B2546954040191546521E002DB5
:10711000F1DC30BD03460B439B0703D009E008C9EF
:10712000121F08C0042AFAD203E00B780370401C37
:10713000491C521EF9D27047D2B201E00270401CC5
:10714000491EFBD270470022F6E710B513460A46E7
:1071500004461946FFF7F0FF204610BD30B505463E
:107160002A460B4610781C78521C5B1C002801D064
:10717000A042F7D0002C03D0002802D06D1CEFE70E
:10718000284630BD421C0178401C0029FBD1801AE2
:10719000704700000FB400B58DB009900B9010A996
:1071A00000200091C0430A9000200C9006480690F1
:1071B000064807906A4609A80F9900F0EFFA0DB04B
:1071C00008BC04B018470000BD770008DD77000850
:1071D000FFB50027FF4383B000205C6801909E68E4
:1071E0001D46A9697F1C049888470090296A884732
:1071F0000028F6D10098401C0CD0032040028443A4
:10720000002E19DD600614D500982B2809D02D28F2
:107210000FD103E00020C04307B0F0BD0120800281
:107220000443A9697F1C04988847761E0090002EAD
:1072300002DD0098302803D00598002825D035E0DD
:10724000012040020443A969761E7F1C04988847E8
:107250000090002E03DD782805D0582803D005982B
:10726000002810D022E00598002801D010281DD158
:10727000012040028443A969761E7F1C0498884738
:107280000090102002E0082000E00A2005900DE0A8
:10729000012149020C43059A0199761E51430818B1
:1072A0000190A9697F1C049888470090002E05DD95
:1072B0000599009800F05CFA0028E9DAE969049879
:1072C0008847A00502D40120C043A5E7E00722D1EA
:1072D000600611D56005019800D5404229680A1D55
:1072E0002A600968220501D5087014E0220701D53B
:1072F000088010E008600EE02868011D2960006821
:10730000210502D50199017005E02107019901D5F8
:10731000018000E0016038467EE7FFB5002083B0C1
:10732000009050680190916914460026976804986F
:10733000884705460C990698084305D009E0A169DD
:10734000761C049888470546216A28468847002805
:10735000F5D1681C03D00198C00704D017E00020C5
:10736000C04307B0F0BD2068011D21600068009097
:107370000DE00198C00704D1009805700098401CEA
:107380000090A169761C7F1E049888470546002F4F
:107390001CDD681C1AD0069800280FD0E817C00E14
:1073A000401941118A0006994009511840012A1AD2
:1073B0000968012090400142DBD107E00C980028C9
:1073C000D7D1216A284688470028D2D0E16904989D
:1073D00088470C98002807D1002E05DD0198C007CA
:1073E00002D1009800210170A068B84204DD0C9819
:1073F000002804D0002F02D00120C043B1E730465E
:10740000AFE70000F0B507460846584087B0C00F08
:10741000049048000E46590040084908BC1A8841AB
:1074200005D2384631461E4617460B4602465800DE
:10743000400810434CD0300D039040055900400DDA
:10744000490D0590401A0290402872DA1803012174
:10745000000B09050843019004980092002805D00C
:1074600001995242002088410092019002984021E7
:107470000A1A0199009800F047F905460C466B4638
:1074800007CB00F062F9C0197141039A0E0D002379
:10749000D71756401A467A40164344D0049A002A19
:1074A0002DD0029A012A039A15DC1205C01A9141C7
:1074B00001263605001C7141D20F059ED2070093AC
:1074C000019202962A46234600F0A7F907B0F0BDC4
:1074D00038463146FAE71605224A0F46B218C01A56
:1074E000B74101210905001C4F4100187F41114699
:1074F00018187941E20F10436D19644113E0E20757
:107500006D0815436408C2071443039A0126120547
:10751000C01A91413605001C7141CE074008304326
:107520004908C01851412A46234600F069F9CDE7C1
:10753000FFE7049801224000C117121A00238B4173
:1075400004983146C417381AA141EEE730B401243B
:10755000E407634030BC55E730B40124E4076140E0
:1075600030BC4FE70000E0FFF0B51FB488B00B99C6
:107570000998002448400999C00F49004908099119
:10758000C0070B990090490049080B910999089888
:10759000A64608431CD00B990A98084318D00998AE
:1075A00001244000420D4800410D099824050003C4
:1075B000000B204309900B980003000B20430B9015
:1075C00050181C494018002201901446104605E04E
:1075D000002001460DB0F0BD032801DA034600E0AB
:1075E00003239C46C11A0AAE0AE05F0008ADED5BBA
:1075F0004F00F75B7D430027AA187C41491C5B1EA6
:107600006145F2DD410004AB5A522104120C0A43D9
:10761000240C401C0828DFDB01980290009970467A
:1076200001910090059B049A0799069800F0F5F8DF
:10763000D0E700000DFCFFFF0EB5C217C10F504090
:10764000CA0740180021054B0293019200910A4697
:107650000B4600F0E2F803B000BD00003304000068
:1076600070B5CD0F4A0009030123090B1B0519430F
:107670000B4BED070024520D9A4201DA002070BD39
:10768000074B34339A4203DC9A1A00F04DF802E0BB
:107690000449511888402C43F1D0404270BD00008D
:1076A000FF030000CDFBFFFFF0B51FB4064600202E
:1076B00082B005464024019100901BE001992246CA
:1076C0000F46304600F030F8049A059B801A994125
:1076D00010D310461946224600F016F8361A8F418C
:1076E0000197224601200021009F00F00DF8381874
:1076F0004D4100902046641E0028DFDC019B00986D
:107700002946324607B0F0BD10B5202A04DB0146F9
:10771000203A9140002010BD914020239C1A03463E
:10772000E3401943904010BD10B5202A04DB084601
:10773000203AD040002110BD0B46D340D040202439
:10774000A21A91400843194610BD10B5202A06DB45
:10775000CB170846203A1041C1170B4306E00B46F1
:107760001341D0402024A21A91400843194610BD6D
:107770003A2800D23038202302469A43412A01D3C6
:1077800010463738884201D30020C04370470000BC
:1077900002681378511801601846704710B5D1601F
:1077A000044951610449116200211161114600F040
:1077B00063F910BD91770008697A00084268002AD1
:1077C00008D001680B78491C002B03D0521E06C05C
:1077D000184670470121C160881E70474268002A20
:1077E0000BD0C3680168002B07D183688B4204D09B
:1077F000491E521C06C0002070470020C04370473D
:1078000010B5002B08DA0024401C614192185B413E
:107810001A4301D14008400010BDF0B51FB482B03A
:1078200005460C0003D0084607F040FC02E007F0D4
:107830003DFC20300246009021462846FFF764FFB9
:10784000049B059A04460F4618431143084314D07D
:10785000184610431BD0009840210A1A1846059973
:10786000FFF762FF05460E46009A05990498FFF758
:107870004BFF084305D0012004E02046394607B0FD
:10788000F0BD0020C11705430E432C433743009938
:107890000E986305401A7905E40A00220C43FD0A9C
:1078A0000A3002D500200146E9E7010510196941B7
:1078B0000C9C0D9D00196941FFF7A2FFDFE7000056
:1078C000F0B50C465C4085B0E40FE40703944C002F
:1078D000002664085900944649080246029622434D
:1078E00021D062460A431ED06200570D4A000E03A3
:1078F0002303550D012402462C492405781B1B0B3C
:10790000360B401823432643614600901C46501A0C
:10791000B44103D30098401C009002E092180098F4
:107920005B41002803DA0020014605B0F0BD0020CD
:10793000012109050746864611E064461D46141BD1
:10794000B54106D36546521BB341744607430C4309
:10795000A646CD0740084908284392185B410546D2
:107960000D43EAD11046184313D0604619465040E3
:107970007140084306D06046101AB34106D2012276
:10798000002306E000220123DB0702E00122D243AC
:107990005310009874460105381C6141029C039DF8
:1079A00000196941FFF72CFFBFE70000FD0300004D
:1079B00070B54B005B0803430BD04B005C0D0026F9
:1079C00033466542B341D417AD1AA34102DB002010
:1079D000014670BD12053018514170BD4A000903BF
:1079E0000123090B1B0519430A4B10B5520D9A428E
:1079F00002DA0020014610BD064B34339A4203DC04
:107A00009A1AFFF791FE10BD034BD218FFF77CFEC8
:107A100010BD0000FF030000CDFBFFFF10B50029E3
:107A200004DB0124E40740428C412146002B04DBA7
:107A30001C460123DB075242A341994200D19042E8
:107A400010BD0000064C0125064E05E0E36807CC9A
:107A50002B430C3C98471034B442F7D3FFF730FB6C
:107A6000302B0108502B010810B50F21C0B249027C
:107A700000F0F0F910BD0000F3B58DB000200A90C1
:107A800001200B90002608460C300C4609906269D4
:107A9000012109989047051E2ED0252D2DD0216A51
:107AA0008847002818D06269012109989047216A07
:107AB00088470028F7D1411E62690998904700E085
:107AC000761CA1690D988847216A88470028F7D15C
:107AD000E1690D988847DAE7A1690D98884707465C
:107AE000A84201D1761CD2E7E1690D9888477F1C36
:107AF00002D10A98002877D049E1002762693D4603
:107B00003946099890472A280CD1626901210998C1
:107B10009047012506E00A214F433F18303FEBD440
:107B200010200543626901210998904701463039C8
:107B30000A2903D29B498F42DEDCECE7E90600D438
:107B4000994F6C280AD04C2810D0682824D06A2875
:107B50002ED074280CD07A280AD00DE06269012159
:107B6000099890476C2823D004211CE0202005436D
:107B70006269012109989047A760656065284FD028
:107B800026DC582839D01ADC452849D012DC2528B3
:107B900034D04128B0D143E062690121099890476F
:107BA000682802D008210D43E6E70120C002DEE785
:107BB0000220DCE7462833D047282CD130E05B2870
:107BC00070D061282CD063286CD0642823D161E068
:107BD0006F284FD009DC662822D0672820D069287A
:107BE00026D06E2817D12EE0CDE070284DD0732816
:107BF0006FD075284ED078280DD154E0A1690D982A
:107C000088470546252800D16CE7E1690D9888472B
:107C10006D1C00D16DE7BAE00A224CE00A2252E066
:107C2000012023466A46C0430D99C046C046A3E0E2
:107C30002846402108436060A807234601D500225A
:107C400039E000223FE0E80700D020E72068011D6E
:107C500021600068290501D5067018E7290701D5BC
:107C6000068014E7A90703D5F117066041600EE707
:107C700006600CE72846402108436060A8072346B9
:107C800001D5082217E008221DE04849284608408F
:107C9000606016E02846402108436060A80723463C
:107CA000BCD5B9E715E02846402108436060A80725
:107CB00007D5234610220120C0430D99C046C04677
:107CC0005AE0234610220120C0430D99FFF780FAA5
:107CD00052E000210C910B460091632802D05B28F2
:107CE00007D043E0E80601D40120A0600120009005
:107CF0003CE062690121099890475E2805D1012086
:107D00000C9001466269099890472169002906D1C3
:107D10000B4601AA8F00491CD3510829FADB002821
:107D200035D0216900290ED1C117C90E09184A1191
:107D3000930001AA9A1849094901411A01201368C0
:107D400088400343136062690121099890475D28C8
:107D5000E5D10C98002808D0002001AB81005A58CA
:107D6000401CD2435A500828F8DB01AB01202246C0
:107D7000C0430D99FFF7D1FA00280ADA401C06D15A
:107D80000B98002803D00020C0430FB0F0BD0A9824
:107D9000FBE7E90702D10A99491C0A91361800202D
:107DA0000B9074E6CCCCCC0CFFFFFF7FF1F7FFFF0C
:107DB000FEB500231A461B1A8A4103DB0020014648
:107DC00003B0F0BD4A000D0301212D0B0905520D32
:107DD0000D43D10702D100186D41521E5110FF31E1
:107DE000FF310131002704463E4638460097019195
:107DF0000246012100200905FFF796FCC3197141D5
:107E0000F818324684468E464A4161462846611A31
:107E1000904104D36046241A954176461F462419A2
:107E200000986D41401C00903428E1DDF91930467E
:107E30007041091BA84103D20022D243134601E03E
:107E40000022134601980105381C7141FFF7D8FC48
:107E5000B6E700007F2801D9002207E0054B420861
:107E60009A5CC00700D112091207120F012090403E
:107E700008407047F823010810B5A84800680121A0
:107E8000C906084000280ED001F002F8A34989680D
:107E9000401AA349884206D3A04800680121C906B8
:107EA00088439E49086000F0F3FF9C494968401AE6
:107EB0009C4988421FD3994800680121490708401E
:107EC000002818D000F0E4FF944948600846006894
:107ED000012109070840002804D093A008F0F8FC0D
:107EE00007F076F903F0DEFB8C48006801210907F2
:107EF00008438A49086000F0CBFF8849C968401AE6
:107F00008E49884279D3854800680121C906084016
:107F1000002879D18148006889000840002873D082
:107F200000F0B6FF7D49C86085480078012804D07C
:107F3000022823D0032862D140E078480078C007A7
:107F4000C00F002819D1FF2101317E48FFF7FBF84F
:107F500000207C4908700120487015208870092293
:107F600079A17848C01CFFF7D5F80C21754808F0B6
:107F7000EFFD02207249087045E000BF67480068C5
:107F800002210840002818D1C9016E48FFF7DBF82C
:107F900000206C4908700220487016208870092261
:107FA0006CA16848C01CFFF7B5F80C21654808F0C3
:107FB000CFFD03206249087025E000BF57480068E4
:107FC00004210840002819D189015E48FFF7BBF859
:107FD00000205C490870032048701720887009222F
:107FE0005FA15848C01CFFF795F80C21554808F0D0
:107FF000AFFD01205249087005E005E000BF0120F7
:108000004F49087000BF00BF00F042FF43490969B3
:10801000401A5649884279D3404800680121C90670
:108020000840002879D13D480068890008400028B0
:1080300073D000F02DFF394908614D4800780128C0
:1080400004D0022823D0032862D140E033480078CE
:10805000C007C00F002819D0FF2101313948FFF7B0
:1080600072F8002037490870012048701520887088
:108070000A2240A13348C01CFFF74CF80D213148BB
:1080800008F066FD02203A49087045E000BF234829
:10809000006802210840002818D0C9012948FFF7CC
:1080A00052F8002027490870022048701620887076
:1080B0000A2233A12348C01CFFF72CF80D212148C8
:1080C00008F046FD03202A49087025E000BF134848
:1080D000006804210840002819D089011948FFF7D9
:1080E00032F8002017490870032048701720887064
:1080F0000A2226A11348C01CFFF70CF80D211148D5
:1081000008F026FD01201A49087005E005E000BFCF
:1081100001201749087000BF00BF10BD30000020CB
:1081200020BF020060EA0000C1ACBDD3B5F4CFDFD0
:10813000A3ACD6D8C6F40D0A000000007869000090
:1081400013000020384E002041542B434552310D7E
:108150000A00000041542B434552320D0A00000032
:1081600041542B434552330D0A00000010270000F4
:108170001400002041542B44415441310D0A0000A9
:1081800041542B44415441320D0A000041542B44C8
:10819000415441330D0A000070B5B2B004460D469B
:1081A000402122A8FEF7CFFF134B1A460C3A13A129
:1081B00022A806F055FF802102A8FEF7C4FF174849
:1081C000016817A008F084FBFF202D3000F04EFD61
:1081D00012480195009443681749026802A806F006
:1081E0003FFF02A8FEF7CEFF0646324602A922A8AC
:1081F00003F064FA32B070BDFD0000202F73797374
:108200002F25732F25732F7468696E672F66696C2D
:10821000652F646F776E6C6F61640000B0020020A0
:108220004F5441C9FDBCB6B5C4B9CCBCFEB1E0BA2F
:10823000C5A3BA25640D0A00CC2A010870B5B0B0F8
:1082400004460D46402120A8FEF77DFF0D4B1A463F
:108250000C3A0DA120A806F003FF80216846FEF726
:1082600072FF2B4622460FA1684606F0F9FE6846CB
:10827000FEF788FF06463246694620A803F08CFACE
:1082800030B070BDFD0000202F6F74612F646576E3
:108290006963652F696E666F726D2F25732F257365
:1082A000000000007B226964223A20312C22706198
:1082B00072616D73223A7B2276657273696F6E22EA
:1082C0003A222573222C226D6F64756C65223A2246
:1082D0002573227D7D00000000B587B000BF4148B6
:1082E000406B012108433F4948630846406BC00783
:1082F000C00F019000BF00BF3B48029001200390D7
:1083000002A90520000700F0C7FC0320029000200E
:108310000390049002A90520000700F0BDFC012194
:108320000520000700F0A4FD012813D12FA008F0BC
:10833000CFFA0122D1030520000700F0A2FD334847
:1083400000F094FC00220121C9030520000700F081
:1083500098FD27E02EA008F0BBFA0122D1030520EA
:10836000000700F08EFD7D20000100F07FFC002260
:108370000121C9030520000700F083FD7D20400195
:1083800000F074FC0122D1030520000700F079FD04
:108390001E4800F06BFC00220121C90305200007E4
:1083A00000F06FFD22A008F093FA0DE0642000F0C9
:1083B0005DFC24A008F08CFA02210520000700F0E3
:1083C00057FD002800D100E0F0E700BF1EA008F034
:1083D0007FFA7D20C00000F049FC20A008F03CFBA3
:1083E00007B000BD00100240108000000D0AC4BF9D
:1083F000C7B0B4A6D3DAB9D8BBFAD7B4CCACA3AC67
:10840000D7BCB1B8BFAABBFA0D0A0000DC0500005A
:108410000D0AC4BFC7B0B4A6D3DABFAABBFAD7B49B
:10842000CCACA3ACD7BCB1B8D6D8C6F40D0A00000A
:10843000C7EBB5C8B4FDD7A2B2E1C9CFCDF8C2E74A
:108440000D0A00002E0000000D0AD2D1BEADD7A249
:10845000B2E1C9CFCDF8C2E70D0A000041542B4369
:1084600049504D55583D300D0A00000030B591B0CF
:108470000446402101A8FEF766FE094B1A460C3A55
:1084800008A101A806F0ECFD2046FEF77BFE05469C
:108490002A46214601A803F011F911B030BD0000B1
:1084A000FD0000202F6578742F73657373696F6EFC
:1084B0002F25732F25732F636F6D62696E652F6C87
:1084C0006F67696E0000000030B591B0044640212E
:1084D00001A8FEF738FE094B1A460C3A08A101A87C
:1084E00006F0BEFD2046FEF74DFE05462A46214613
:1084F00001A803F0E3F811B030BD0000FD0000203A
:108500002F7379732F25732F25732F7468696E6706
:108510002F6576656E742F70726F70657274792F27
:108520007061636B2F706F737400000000B591B0C1
:108530001A4800698008800018490861002001F08D
:108540002FFA02200490C0010790002008904020DC
:10855000099002200B9002210C9100210D9108211D
:108560000E910107109101040F9104A800F07CFE08
:10857000002801D006F012FE072000900220019092
:108580000020029003900221684600F0F7FC0028CA
:1085900001D006F003FE11B000BD000000E000E0D5
:1085A00010B5044800F00CFA02485C3800F008FAF4
:1085B00010BD0000A41D002010B5024800F000FA14
:1085C00010BD0000440B002010B5024800F0F8F97F
:1085D00010BD0000E80A002070B50446206C800839
:1085E0008000094940186064217808460838142141
:1085F000FEF77AFD054604488030A064E906C90EFE
:1086000001208840E06470BD0008024002799106B4
:10861000890E4A1E9200064BD2180265044A403267
:1086200042654A1E93079B0F01229A40826570475C
:108630000009024070B5856CC46C6C60046D002C40
:1086400002D0456D846D6C600C4C64681C26056C12
:1086500035400126AE403443084D6C6004686360C9
:108660008468102C04D10468A2600468E16003E00F
:108670000468A1600468E26070BD00000000024070
:1086800010B501460F4B5A6998698B01C31A0BD478
:1086900000BF0C4B9B698C01041BA34210D9094BF2
:1086A0009B698342F5D90BE000BF064B9B6983426F
:1086B000FBD9044B9B698C01241A141BA342F4D8E8
:1086C00010BD000000E000E0F8B505460C46164677
:1086D000274632463946284602F03CFEF8BD0000E7
:1086E00010B570212C48FEF72EFD70222A4900207B
:1086F000FFF7EAFF28480078DD281AD027A008F005
:10870000E7F800BF00BF00BF00BF00BFBFF34F8F3F
:1087100000BF00BF00BF2B482B49C86000BF00BF8F
:1087200000BFBFF34F8F00BF00BF00BF00BF00BF3F
:10873000FDE702F00BF9254808F0CAF81649491C74
:1087400023A008F0C5F814490D3126A008F0C0F8A0
:1087500011492E3128A008F0BBF80F494F312BA04A
:1087600008F0B6F82D492EA008F0B2F82B49403198
:108770002FA008F0ADF82949803131A008F0A8F801
:10878000334802882549C03132A008F0A1F83648A4
:1087900008F09EF810BD0000F0000020D6A4CAE941
:1087A000D0C5CFA2CEDED0A720C7EBD4DA426F6F00
:1087B000744C6F61646572D6D0D6D8D0C2C9E8D681
:1087C000C30D0A000400FA0500ED00E010270108BF
:1087D00050726F647563744B6579A3BA25730D0A83
:1087E000000000004465766963654E616D65A3BA5B
:1087F00025730D0A000000004465766963655365C2
:1088000063726574A3BA25730D0A0000B9CCBCFE6F
:10881000B0E6B1BEA3BA25730D0A00006847002078
:10882000BFCDBBA7B6CB4944A3BA25730D0A000040
:10883000D3C320BBA720C3FBA3BA25730D0A000036
:10884000C3DC20202020C2EBA3BA25730D0A000050
:10885000684A0020B7FE20CEF120C6F7A3BA2573E0
:108860003A25640D0A000000C4260108F8B5054643
:108870000E4617460096002408E00098015D284641
:1088800002F095FD681CC5B2601C84B2BC42F4DBEA
:10889000F8BD00000146002901D1012070472520C4
:1088A000405C022808D00420C86300BF00222420B6
:1088B000425400BF0120F1E7086800680E2290438F
:1088C0000A681060486C0068FF22013290434A6CCD
:1088D000106008680068400840000A68106012488C
:1088E00040681C230A6C1A400123934018430E4A27
:1088F00050608A6CC86C5060086D002809D0086D03
:108900000068FF22013290430A6D10604A6D886D45
:10891000506001222520425400BF002224204254EE
:1089200000BF0020BAE700000000024070B5044616
:1089300000252520005D022803D00420E0630125E6
:108940003AE0206800680E218843216808602068AA
:1089500000684008400021680860606C0068FF21E2
:1089600001318843616C0860144840681C22216C06
:10897000114001228A40104310494860A16CE06C0C
:108980004860206D002809D0206D0068FF2101316A
:108990008843216D0860616DA06D4860012125202C
:1089A000015500BF00212420015500BFA06B002805
:1089B00002D02046A16B8847284670BD00000240C7
:1089C00070B5044645480568206806681C20216C7F
:1089D0000140042088402840002820D00420304056
:1089E00000281CD02068006820210840002805D1FC
:1089F000206800680421884321680860374840687F
:108A00001C22216C114004228A40104333494860E3
:108A1000206B002860D02046216B88475CE01C203A
:108A2000216C0140022088402840002828D00220E4
:108A30003040002824D02068006820210840002809
:108A400008D1206800680A21884321680860012154
:108A500025200155214841681C22206C104002222B
:108A6000824011431D48416000BF00212420015570
:108A700000BFE06A00282FD02046E16A88472BE03B
:108A80001C20216C0140082088402840002823D069
:108A90000820304000281FD0206800680E2188433D
:108AA000216808600D4841681C22206C104001229A
:108AB00082401143094841600120E06301212520E3
:108AC000015500BF00212420015500BF606B002824
:108AD00002D02046616B884770BD00000000024054
:108AE00010B50446002C01D1012010BD2A4A21688E
:108AF000881A1421FEF7F8FA80002064022125204C
:108B00000155206800682549084021680860E1682F
:108B1000A06808432169084361690843A1690843C3
:108B2000E1690843216A084321680968084321680C
:108B300008602046FFF750FD01218903A0688842A4
:108B400001D10020606020798006800E616C086091
:108B5000A16CE06C4860606800280CD06068042854
:108B600009D82046FFF752FD0020216D0860616D95
:108B7000A06D486003E0002020656065A0650020CE
:108B8000E06301212520015500BF0021242001556B
:108B900000BF0020A9E70000080002400F80FFFF8F
:108BA000F8B504460D4616461F460020009000BF4B
:108BB0002420005D012801D10220F8BD01212420DC
:108BC000015500BF2520005D012844D10221252048
:108BD00001550020E06320680068400840002168DB
:108BE00008603B46324629462046FFF723FD206BAE
:108BF000002806D0206800680E210843216808601C
:108C00000BE0206800680421884321680860206820
:108C100000680A21084321680860606C006801212F
:108C200009040840002805D0606C00680912084358
:108C3000616C0860206D002806D0206D0068FF215F
:108C400001310843216D0860206800680121084354
:108C50002168086008E08020E06300BF0021242034
:108C6000015500BF012000900098A6E770B50446AA
:108C700000F00EF906462546681C002802D005487B
:108C800000782D1800BF00F003F9801BA842FAD32A
:108C900070BD00002000002070B503460A46002188
:108CA000D7E001268E4014683440002C73D015792B
:108CB000AD07AD0F012D04D01579AD07AD0F022D15
:108CC00018D198684E000325B5400646AE4330469D
:108CD0004E00D568B54028439860586801258D40FE
:108CE0000646AE4330461026556835402D098D4066
:108CF000284358601579AD07AD0F032D0BD0D86808
:108D00004E000325B5400646AE4330464E009568FA
:108D1000B5402843D8601579AD07AD0F022D15D1A8
:108D2000CD08AE001D462035A8594D07EE0E0F2583
:108D3000B5400646AE4330464E07F60E1569B540BF
:108D40002843CD08AD001E462036705118684E00ED
:108D50000325B5400646AE4330461579AD07AD0F45
:108D60004E00B54028431860032636045568354048
:108D7000002D6DD03A4D8E08B600A8598D07EE0E25
:108D80000F25B5400646AE43304605252D07AB42BC
:108D900002D1002510E05BE0324DAB4201D101254C
:108DA0000AE0314DAB4201D1022505E02F4DAB4227
:108DB00001D1032500E005258E07F60EB5402843B6
:108DC000274D8E08B600A851254D20352868054648
:108DD000A54328460126360455683540002D02D0AB
:108DE0000546254328461E4D2035286068680546FF
:108DF000A54328460126760455683540002D02D04B
:108E0000054625432846164D20356860144D603DC3
:108E100028680546A543284601263605556835408D
:108E2000002D02D00546254328460D4D603D2860A3
:108E300068680546A54328460126760555683540ED
:108E4000002D02D0054625432846054D603D68604B
:108E5000491C1568CD40002D00D022E770BD0000F0
:108E6000601802400004005000080050000C005040
:108E7000024613690B40002B01D0012000E00020C6
:108E80007047002A01D0816100E0816270470000D4
:108E9000014800687047000018000020034800687F
:108EA00003490978401801490860704718000020FC
:108EB0002000002010B5002408480068FF2101317F
:108EC000084306490860002000F00AF8002801D095
:108ED000012401E000F034F8204610BD00200240DB
:108EE000F8B5044600251348007800281ED0114824
:108EF00001787D20C000FEF7F7F8074639460E4896
:108F00000068FEF7F1F8064600F05CFD00280BD182
:108F1000042C07D200222146401E00F025F8074805
:108F2000046004E0012502E0012500E00125284657
:108F3000F8BD000020000020240000201C000020BC
:108F4000704700000146002909DB00BF00BFCB06C7
:108F5000DB0E01229A40034B1A6000BF00BF00BF26
:108F60007047000000E100E070B504460D4616466B
:108F70002946204606F0D6F870BD000070B50446BC
:108F80000D46002C01D1012070BD6B4800684007E0
:108F9000400FA84218D268480068C008C0002843A3
:108FA00065490860FFF774FF064607E0FFF770FFAA
:108FB000801B6249884201D90320E5E75E480068CA
:108FC0004007400FA842F1D1022120680840022842
:108FD00015D1042120680840042807D1584880682A
:108FE0000721090388434018554988605448806820
:108FF0000F2109028843A1680843514988602078FD
:10900000C007C00F002854D06068012808D14C4820
:10901000006801214904084000282ED10120B3E74F
:109020006068022808D146480068012149060840C6
:10903000002822D10120A7E76068002808D1404815
:109040000068012189020840002816D101209BE711
:109050006068032808D13A484030006A022108407D
:1090600000280AD101208FE735484030C06902212D
:109070000840002801D1012086E731488068C008F7
:10908000C000616808432E498860FFF701FF06466B
:1090900007E0FFF7FDFE801B2849884201D9032025
:1090A00072E727488068382108406168C900884213
:1090B000EFD1214800684007400FA84218D91E4848
:1090C0000068C008C00028431B490860FFF7E0FEA5
:1090D000064607E0FFF7DCFE801B1849884201D9ED
:1090E000032051E7144800684007400FA842F1D11F
:1090F000042120680840042808D11148806807210D
:1091000009038843E16808430D49886000F03AF894
:109110000B4989680F2212021140090A8900094A85
:10912000515CC906C90EC840074908600748006875
:10913000FFF7D6FE28E70000002002408813000059
:1091400000100240C8220108240000201C0000205A
:1091500001480068704700002400002000B5FFF7B8
:10916000F7FF06498968072212031140090B89009D
:10917000034A515CC906C90EC84000BD0010024038
:1091800008230108FEB535488068382108400028CA
:109190000DD13248006809020840C10A0120884008
:1091A00000902F480099FDF79FFF044654E02B489C
:1091B000806838210840082801D12A4C4CE0274813
:1091C000806838210840102834D12448C0688607B8
:1091D000B60F2248C068702108400009401C019069
:1091E000022E0FD0032E0CD11E480199FDF77CFFF3
:1091F0001A49C9687F2212021140090A48430546EC
:109200000DE000BF16480199FDF76EFF1349C968CC
:109210007F2212021140090A4843054600BF00BFE1
:109220000E48C068400F471C39462846FDF75CFFD2
:10923000044611E00948806838210840202801D1FF
:10924000840209E00548806838210840182802D1C6
:109250007D24240200E000242046FEBD00100240D0
:109260000024F40000127A00FEB50446002C01D15F
:109270000120FEBD2078C007C00F00286FD0F7483E
:10928000876838210F40C0688607B60F102F01D1BC
:10929000032E01D0082F0BD1F048006801214904AA
:1092A000084000285BD06068002858D10120E0E722
:1092B00000BF012109046068884205D1E7480068C1
:1092C0000843E649086021E00521090460688842F6
:1092D0000ED1E2480068012189040843DF49086093
:1092E00008460068012109040843DC4908600DE0D4
:1092F000DA480068012109048843D8490860084613
:109300000068012189048843D449086000BF60686F
:10931000002812D0FFF7BCFD054606E0FFF7B8FDB8
:10932000401B642801D90320A3E7CC480068012131
:10933000490408400028F1D011E0FFF7A9FD0546D7
:1093400006E0FFF7A5FD401B642801D9032090E744
:10935000C24800680121490408400028F1D10221D7
:1093600020680840022873D1BC4880683821084032
:109370000746BA48C0688607B60F102F01D1022EE3
:1093800001D0002F36D1B54800680121890208407C
:10939000002804D0E068002801D1012069E7AF4827
:1093A00040687F2109028843616909020843AB498B
:1093B0004860002F16D1084600680721C90288437B
:1093C00021690843A5490860084600680722D202BF
:1093D0001040C20A012090400146A148FDF784FEDA
:1093E000A0490860A0480068FFF77AFD002849D02E
:1093F00001203EE7E06800282BD09848006807214C
:10940000C9028843216908439449086008460068F6
:109410008915084391490860FFF73AFD054606E0C3
:10942000FFF736FD401B022801D9032021E78B48B6
:1094300000680121890208400028F1D0874840686F
:109440007F21090288436169090208438349486012
:1094500018E082480068FF21013188437F49086095
:10946000FFF716FD054606E0FFF712FD401B022838
:1094700001D90320FDE679480068012189020840EE
:109480000028F1D1082120680840082849D17348F4
:1094900080683821084018280BD170484030006A95
:1094A0000221084000283CD0A069002839D10120C1
:1094B000DFE6A06900281AD068484030006A012120
:1094C0000843664940310862FFF7E2FC054606E0C2
:1094D000FFF7DEFC401B022801D90320C9E65F48E4
:1094E0004030006A022108400028F1D019E05B48B2
:1094F0004030006A40084000584940310862FFF798
:10950000C7FC054606E0FFF7C3FC401B022801D953
:109510000320AEE651484030006A0221084000288E
:10952000F1D104212068084004287CD1002001905A
:109530004A4880683821084020280BD147484030ED
:10954000C0690221084000286ED0A06800286BD1B5
:1095500001208EE64148C06B010F0120884300289E
:1095600010D000BF3D48C06B0121090708433B49AB
:10957000C8630846C06B09040840009000BF00BFE4
:109580000120019039480068FF210131084000287E
:1095900016D136480068084334490860FFF778FC64
:1095A000054606E0FFF774FC401B022801D90320A2
:1095B0005FE62E480068FF21013108400028F1D005
:1095C00000BFA068012808D124484030C0690121AB
:1095D000084322494031C86120E0A06805280FD126
:1095E0001E484030C069042108431C494031C8610D
:1095F0000846C0690121084318494031C8610DE09F
:1096000016484030C0694108490014484030C161E3
:10961000C0690421884311494031C86100BFA06876
:10962000002816D001E040E03EE0FFF731FC05469F
:1096300007E0FFF72DFC401B0D49884201D90320AC
:1096400017E606484030C069022108400028F0D0E3
:109650001EE0FFF71DFC054614E00000001002406C
:109660000024F400240000201C00002000700040B2
:1096700088130000FFF70CFC401B6449884201D9A5
:109680000320F6E56248C069022108400028F1D1B4
:109690000198012808D15E484038C06B01210907B4
:1096A00088435B494039C86300BFE06900285AD04D
:1096B0005748403880683821084010287ED0E0693B
:1096C000022851D1524840380068012109068843D8
:1096D0004F4940390860FFF7DBFB054606E0FFF71E
:1096E000D7FB401B022801D90320C2E54848403877
:1096F00000680121490608400028F0D1616A206A0B
:109700000843A16A09020843E16A0843216B084340
:109710003F494039C9683F4A114008433C494039F4
:10972000C8600846006801210906084338494039E5
:1097300008600846C0680904084335494039C860D4
:10974000FFF7A6FB054606E0FFF7A2FB401B022839
:1097500001D903208DE52E484038006801214906D3
:1097600008400028F0D04EE0294840380068012128
:10977000090688432649403908600846C0688008C1
:109780008000C8600846C068234908402049403925
:10979000C860FFF77DFB054607E0FFF779FB401B3C
:1097A000022802D9032064E508E01948403800681F
:1097B0000121490608400028EFD124E0E069012892
:1097C00000D156E512484038C668B107890F206AB3
:1097D000814216D170203040616A884211D17F20C9
:1097E00000023040A16A090288420AD11F204004C9
:1097F0003040E16A884204D1710F4907206B8142F1
:1098000001D0012035E5002033E500008813000079
:10981000401002408C80C11FFFFFFEEF70B5044670
:10982000002C01D1012070BD606A002808D1FF2101
:1098300005316068884200D105E00021E16102E065
:109840000021216161610021A1625D20005D00288D
:1098500004D15C200155204600F066F802215D200D
:10986000015520680068402188432168086007216D
:109870000902E068884201D9002501E001252D0395
:109880000F210902E068884206D007210902E0683A
:10989000884201D00021A162FF21053160680840A3
:1098A00021229202A168114008430222216911403D
:1098B0000843217DC907C90F08431202A16911405D
:1098C00008433822E169114008438022216A11408F
:1098D00008439201A16A1140084321680860A06909
:1098E000000C042108401022616A1140084308223C
:1098F000616B114008430F221202E16811400843D6
:109900000121090329400843216848602068C06993
:109910000121C90288432168C86100202066012115
:109920005D20015500207EE710B586B00446194938
:10993000206888422BD100BF1748406B02210843A2
:10994000154948630846406B02210840009000BF5B
:1099500000BF00BF1048C06B490308430E49C863ED
:109960000846C06B012189030840009000BF00BF7A
:109970000720400301900220029001200390032061
:1099800004900020059001A90448FFF785F906B06E
:1099900010BD0000003800400010024000040050DC
:1099A000042806D10649096904221143044A1161B9
:1099B00005E00349096904229143014A1161704796
:1099C00000E000E070B504462546681E094988425B
:1099D00001D901200CE0681E074948610321081FD6
:1099E00005F0A0FB002004498861072008610020E1
:1099F00070BD0000FFFFFF0000E000E0704770470F
:109A00007047704710B504464149206888423FD1ED
:109A100040480068404941183E48803080684160B5
:109A2000FFF736FA3B4980318968886039488030D1
:109A300080680C3037498031886008468168006949
:109A4000814204D13348103001467031886031487A
:109A500000680121C902081AFF2808D92D480068AA
:109A60002D4941182B4880308068016007E00020B4
:109A700028490860284927488030806801602548C7
:109A800080308068FF2201320168244800F08EFC9B
:109A90002349206888423AD1224800682249411867
:109AA00020488030806841601E48803080680C30DB
:109AB0001C4980318860084681680069814204D170
:109AC000184810300146703188601648006801213E
:109AD0004903081A0911884208D31248006812493C
:109AE0004118104880308068016007E000200D496F
:109AF00008600D490B48803080680160094880305B
:109B00008068012252020168084800F04FFC10BD35
:109B10000048004040090020A0130020580A0020FF
:109B200000440040A01B002000220020B81C0020A0
:109B300070B5044600BF05F065FB0546012005F041
:109B4000F4FB20680068FF21213188432168086008
:109B5000284605F0EAFB00BF00BF05F053FB0546B1
:109B6000012005F0E2FB2068806835490840216843
:109B70008860284605F0D9FB00BFE06E012810D1AF
:109B800000BF05F03FFB0546012005F0CEFB206835
:109B900000681021884321680860284605F0C5FB4D
:109BA00000BF2068806840210840402836D100BFAF
:109BB00005F028FB0546012005F0B7FB206880680A
:109BC0004021884321688860284605F0AEFB00BF2D
:109BD000E06F00280BD01B48E16F8863E06FFEF751
:109BE000A5FE00282AD0E06F816B884726E000217F
:109BF0005E2001530020A0650F20216808622068C4
:109C0000806908210843216888612021882001514A
:109C10000020E0662046FFF7F5FE0FE000215E2001
:109C200001530020A0650F202168086220218820B0
:109C300001510020E0662046FFF7E4FE002070BDE1
:109C4000FEFFFFEFD5E7000870470000F0B585B0D4
:109C500004462068C5692068066820688768FB4854
:109C6000284003900398002814D120202840002881
:109C700010D020203040002804D1012000073840B7
:109C8000002807D0206F002802D02046216F884787
:109C900005B0F0BD039800287ED0ED48384000287C
:109CA00003D1EC4830400028F6D0E807C00F002868
:109CB0000DD0FF2001303040002808D0012021685D
:109CC00008628C200059012108438C210851022090
:109CD000284000280CD0F807C00F002808D0022028
:109CE000216808628C200059042108438C21085106
:109CF0000420284000280CD0F807C00F002808D006
:109D00000420216808628C200059022108438C211C
:109D1000085108202840002810D02020304000287A
:109D200003D1CB483840002808D0082021680862B9
:109D30008C200059082108438C2108510120C002C1
:109D4000284000280ED0012080063040002809D08D
:109D50000120C002216808628C200059202108439C
:109D60008C2108518C200059002859D020202840EF
:109D700000280ED020203040002804D10120000708
:109D80003840002805D0206F002802D02046216FDF
:109D900088478C20005900E043E0029020688068EA
:109DA00040210840402804D028210298084000287B
:109DB00030D0204604F060FD2068806840210840D3
:109DC000402823D100BF05F01DFA0190012005F0C5
:109DD000ACFA206880684021884321688860019837
:109DE00005F0A3FA00BFE06F00280BD09A48E16F9E
:109DF0008863E06FFEF79AFD002811D0E06F816B59
:109E000088470DE02046FFF71FFF09E02046FFF7D7
:109E10001BFF05E02046FFF717FF00218C200151B2
:109E200036E7E06E01287CD110202840002878D049
:109E3000102030400028FAD01020216808622068E5
:109E4000806840210840402871D1E06F0068406878
:109E500080B201900198002868D05C20015B0198D5
:109E6000814263DD5E2101980853E06F006800685D
:109E70002021084000284CD100BF05F0C3F9009014
:109E8000012005F052FA20680068FF210131884363
:109E900021680860009805F048FA00BF00BF05F08F
:109EA000B1F90090012005F040FA20688068400870
:109EB000400021688860009805F037FA00BF00BFB5
:109EC00005F0A0F90090012005F02FFA20688068C5
:109ED0004021884321688860009805F026FA00BF79
:109EE0002021882001510020E06600BF05F08AF99A
:109EF0000090012005F019FA2068006810218843BD
:109F000021680860009805F010FA00BFE06FFEF7C6
:109F1000C1FC5C20025B5E20005B101A81B220460F
:109F200002E052E003E001E0FFF768FDB0E65C20EC
:109F3000015B5E20005B081A80B201905E20005B2E
:109F4000002841D0019800283ED000BF05F05AF902
:109F50000090012005F0E9F920680068FF21213117
:109F6000884321680860009805F0DFF900BF00BF52
:109F700005F048F90090012005F0D7F920688068C5
:109F80003349C943084021688860009805F0CDF93D
:109F900000BF2021882001510020E066206700BF1B
:109FA00005F030F90090012005F0BFF92068006845
:109FB0001021884321680860009805F0B6F900BFB9
:109FC00020460199FFF71AFD62E6012000052840AE
:109FD00000280CD0012080053840002807D001203F
:109FE0000005216808622046FFF70BFD50E680203F
:109FF000284000280FD080203040002804D10120C4
:10A00000C0053840002806D0606F002802D02046E6
:10A01000616F88473CE640202840002807D0402058
:10A020003040002803D0204604F068FC30E60120D0
:10A03000C0052840002811D00120800730400028AA
:10A040000CD02046FFF7DCFC22E600000F080000E1
:10A05000010000102001000479E60008012000063C
:10A060002840002807D0F00FC007002803D0204662
:10A07000FFF7C5FC0CE600BF0AE610B50446002C4D
:10A0800001D1012010BDA069002800D000E000BF70
:10A0900084200059002805D1002180200155204648
:10A0A00000F02CF824218420015120680068400829
:10A0B000400021680860204604F066FC012800D1B9
:10A0C000E0E7A06A002802D0204604F021FA2068C8
:10A0D00040680921C9028843216848602068806877
:10A0E0002A2188432168886020680068012108438C
:10A0F00021680860204604F083FAC3E710B586B0F3
:10A100000446A249206888422CD100BFA048406B79
:10A11000012108439E4948630846406BC007C00FB1
:10A12000009000BF00BF00BF994840300068012187
:10A1300089030843964940310860084600680121B8
:10A1400089030840009000BF00BF03204002019037
:10A150000220029001200390059001A9052000072C
:10A16000FEF79AFD8B49206888427CD100BF884861
:10A17000406B02210843864948630846406B022130
:10A180000840009000BF00BF00BF8148C06B490479
:10A1900008437F49C8630846C06B01218904084011
:10A1A000009000BF00BF00BF7948806B01210843C9
:10A1B000774988630846806BC007C00F009000BFD6
:10A1C00000BF0320000201900220029001200390B2
:10A1D0000420059001A97048FEF75EFD02220021CF
:10A1E0001D20FEF7C1FE1D20FEF7ACFE6B496C483A
:10A1F00041603721001D4160102181600021C16054
:10A2000080210161002141618161C1610121490316
:10A210000162FEF765FC00BF6148001DA067846213
:10A2200000BF5E4914318438816236212830416094
:10A2300000218160C1608021016100214161816153
:10A24000C161012149030162FEF74AFC00BF544885
:10A250005838E067846200BF002211460920FEF7EB
:10A2600083FE092000E009E0FEF76CFE00221146A3
:10A270000A20FEF779FE0A20FEF764FE49492068AD
:10A2800088427DD100BF4248406B012108434049CC
:10A2900048630846406BC007C00F009000BF00BF76
:10A2A00000BF0846C06B0121490408433849C86310
:10A2B0000846C06B012149040840009000BF00BF60
:10A2C00000BF3348806B0121084331498863084649
:10A2D000806BC007C00F009000BF00BF0C20019032
:10A2E0000220029001200390059001A9052000079B
:10A2F000FEF7D2FC022200211C20FEF735FE1C20B6
:10A30000FEF720FE25493C31274841603521001DDC
:10A310004160102181600021C16080210161002124
:10A3200041618161C161012149030162FEF7D8FBEE
:10A3300000BF1D48001DA067846200BF174950314F
:10A340008438816234212830416000218160C160FD
:10A3500080210161002141618161C16101214903C5
:10A360000162FEF7BDFB00BF0F485838E06784620A
:10A3700000BF002211460B20FEF7F6FD0B2000E087
:10A3800001E0FEF7DFFD06B010BD0000003801401F
:10A390000010024000480040000400500800024045
:10A3A000400B002000440040A01D0020F8B50446EA
:10A3B0000D4616468820005920283ED1002D01D098
:10A3C000002E01D10120F8BD01210903A0688842B7
:10A3D00008D12069002805D1E807C00F002801D066
:10A3E0000120F0E700BF8020005D012801D102209C
:10A3F000E9E701218020015500BF0020E0662068C8
:10A400004068C9050840002811D000BF04F0FAFEDA
:10A410000746012004F089FF2068006801218906B1
:10A42000084321680860384604F07FFF00BF3246C9
:10A430002946204604F0C0FBC5E70220C3E7000020
:10A4400010B5044648492068884245D1474800680D
:10A45000FF3001304549086008460068444941180A
:10A460004248803080684160FEF712FD3F498031EC
:10A47000896888603D48803080680C303B49803175
:10A480008860084681680069814204D137481030ED
:10A49000014670318860354800680121C902081AF8
:10A4A000FF2808D931480068314941182F488030C9
:10A4B0008068016007E000202C4908602C492B4887
:10A4C000803080680160294880308068FF22013236
:10A4D00001682848FFF76AFF27492068884241D170
:10A4E00026480068FF30FF300230244908600846E3
:10A4F00000682349411821488030806841601F4826
:10A50000803080680C301D49803188600846816841
:10A510000069814204D119481030014670318860C9
:10A520001648006801214903081A0911884208D316
:10A530001248006812494118104880308068016054
:10A5400007E000200D4908600D490C488030806804
:10A5500001600A488030806801225202016809487F
:10A56000FFF724FF10BD0000004800404009002014
:10A57000A0130020580A002000440040A01B002027
:10A5800000220020B81C002070470000F8B50446E7
:10A590000E4615468420005920286AD1002E01D08D
:10A5A000002D01D10120F8BD01210903A0688842D6
:10A5B00008D12069002805D1F007C00F002801D07C
:10A5C0000120F0E700BF8020005D012801D10220BA
:10A5D000E9E701218020015500BF2665542005537D
:10A5E0005620055300218C20015121218420015146
:10A5F000A06F002822D02048A16FC8621F48A16F19
:10A6000008631F48A16F48630020A16F8863236817
:10A610001A4628322B46216DA06FFEF7C1FA00289A
:10A620000CD010218C20015100BF00218020015549
:10A6300000BF2021842001510120B4E7402021687F
:10A64000086200BF00218020015500BF00BF04F058
:10A65000D9FD0746012004F068FE2068806880214B
:10A66000084321688860384604F05FFE00BF002080
:10A6700099E7022097E7000005E8000869E800086C
:10A6800091E6000810B504460B492068884206D1BF
:10A6900000200A490873FEF7FBFB08498860084957
:10A6A0002068884206D1002006490873FEF7F0FBB7
:10A6B0000449886010BD00000048004040090020A7
:10A6C00000440040A01B00207047704700B587B0D1
:10A6D00000BF2048406B012108431E4948630846DB
:10A6E000406BC007C00F019000BF00BF00BF08460D
:10A6F000406B01210843174948630846406BC00777
:10A70000C00F019000BF00BF881402901120039079
:10A710000220059002A905200007FEF7BDFA0120DE
:10A72000C0020290012003900220059002A905209A
:10A730000007FEF7B1FA0122D10205200007FEF75B
:10A74000A0FB0122110305200007FEF79AFB07B0CA
:10A7500000BD00000010024070B505460024002234
:10A760000121C90205200007FEF78BFB1420FDF72D
:10A7700087FF002623E00122D10205200007FEF713
:10A7800080FB1420FDF77CFF6006040E0121090305
:10A7900005200007FEF76CFB002801D0601CC4B246
:10A7A0001420FDF76DFF00220121C90205200007DA
:10A7B000FEF767FB1420FDF763FF701CC6B2082E7E
:10A7C000D9DB002D16D10122110305200007FEF769
:10A7D00058FB0122D10205200007FEF752FB0220A0
:10A7E000FDF74EFF00220121C90205200007FEF7F8
:10A7F00048FB1CE000220121090305200007FEF7A9
:10A8000040FB0122D10205200007FEF73AFB02209F
:10A81000FDF736FF00220121C90205200007FEF7DF
:10A8200030FB0122110305200007FEF72AFB20461A
:10A8300070BD70B5044600220121C9020520000741
:10A84000FEF71FFB00251FE080202040C2110121E0
:10A85000090305200007FEF714FB6006040E022022
:10A86000FDF70EFF0122D10205200007FEF709FBCC
:10A870000220FDF705FF00220121C9020520000783
:10A88000FEF7FFFA681CC5B2082DDDDB70BD10B500
:10A890000122110305200007FEF7F3FA0122D1027D
:10A8A00005200007FEF7EDFA0420FDF7E9FE00227F
:10A8B0000121090305200007FEF7E3FA10BD10B5DA
:10A8C00000220121090305200007FEF7DAFA012220
:10A8D000D10205200007FEF7D4FA0420FDF7D0FED0
:10A8E0000122110305200007FEF7CBFA10BD10B5B9
:10A8F00000240122110305200007FEF7C2FA0122FD
:10A90000D10205200007FEF7BCFA0AE0601CC4B2C1
:10A91000FA2C03DDFFF7D3FF012010BD0220FDF765
:10A92000AFFE0121090305200007FEF7A1FA002868
:10A93000ECD100220121C90205200007FEF7A1FA8F
:10A940001420FDF79DFE0020E7E7000010B592B04F
:10A950006D2109013648FCF7F6FB364A36A134482A
:10A9600004F07EFB334B0C3B324A3DA13048403073
:10A9700004F076FB402102A8FCF7E5FB2D480C38DB
:10A980002C4B1A4638A1009002A804F069FB02A8DB
:10A99000FCF7F8FB04462020264B2133244A803262
:10A9A0002146009002A806F021F9224A0C3A37A16C
:10A9B0001F48C03004F054FB3E483F4908801D4BFF
:10A9C0001A460C3A3DA13C48103004F049FB194BA3
:10A9D0001A460C3A43A13848503004F041FB154B5D
:10A9E0001A460C3A46A13448903004F039FB114B1A
:10A9F0001A460C3A4CA13048D03004F031FB0D4BD4
:10AA00001A460C3A52A15C4804F02AFB094B1A463C
:10AA10000C3A5AA15848403004F022FB054B1A4624
:10AA20000C3A62A15448803004F01AFB12B010BDF9
:10AA300068470020FD00002025737C7365637572F4
:10AA4000656D6F64653D332C7369676E6D65746801
:10AA50006F643D686D6163736861317C0000000064
:10AA60002573262573000000636C69656E74496464
:10AA700025736465766963654E616D6525737072D3
:10AA80006F647563744B65792573000025732E69B7
:10AA90006F742D61732D6D7174742E636E2D7368D8
:10AAA000616E676861692E616C6979756E63732E7A
:10AAB000636F6D005B070000684A00202F73797395
:10AAC0002F25732F25732F7468696E672F73657236
:10AAD000766963652F70726F70657274792F736514
:10AAE000740000002F6F74612F6465766963652FB1
:10AAF000757067726164652F25732F2573000000E0
:10AB00002F7379732F25732F25732F7468696E67E0
:10AB10002F66696C652F646F776E6C6F61645F720E
:10AB200065706C79000000002F6578742F73657371
:10AB300073696F6E2F25732F25732F636F6D626995
:10AB40006E652F6C6F67696E5F7265706C7900005F
:10AB50002F6578742F73657373696F6E2F25732F4C
:10AB600025732F636F6D62696E652F6C6F676F75EC
:10AB7000745F7265706C7900784B00202F73797365
:10AB80002F25732F25732F7468696E672F6576657F
:10AB90006E742F70726F70657274792F7061636B51
:10ABA0002F706F73745F7265706C79002F73797397
:10ABB0002F25732F25732F7468696E672F6F74614B
:10ABC0002F6669726D776172652F6765745F726554
:10ABD000706C790000B587B000BF2248406B02213D
:10ABE0000843204948630846406B02210840019011
:10ABF00000BF00BF00BF1B48406B2021084319491C
:10AC000048630846406B20210840019000BF00BF08
:10AC100080200290002003900120049002A9124895
:10AC2000FEF73AF8022002900120039002A90F4893
:10AC3000FEF732F8602002900120039002A90A4832
:10AC4000FEF72AF8002220210748FEF71AF9012210
:10AC500040210548FEF715F9C820FEF707F807B0B0
:10AC600000BD00000010024000040050001400501D
:10AC700070B504462279E17888A005F029FE617953
:10AC80008CA005F025FEA079E0210840C106C90E80
:10AC9000002928D14011030004F01FFA0805090D0E
:10ACA0001115191D212588A005F012FE1BE08AA0B0
:10ACB00005F00EFE17E08CA005F00AFE13E08EA052
:10ACC00005F006FE0FE090A005F002FE0BE092A05A
:10ACD00005F0FEFD07E094A005F0FAFD03E096A064
:10ACE00005F0F6FD00BF00BFA0791821084000283C
:10ACF00004D0082806D010280CD107E092A005F057
:10AD0000E7FD07E097A005F0E3FD03E09CA005F058
:10AD1000DFFD00BF00BFA0794007400F030004F033
:10AD2000DCF90805090D1115191D21259BA005F059
:10AD3000CFFD1BE09DA005F0CBFD17E09FA005F027
:10AD4000C7FD13E0A1A005F0C3FD0FE0A3A005F02F
:10AD5000BFFD0BE0A5A005F0BBFD07E0A8A005F036
:10AD6000B7FD03E0ABA005F0B3FD00BF00BFE07985
:10AD7000C0210840002806D0402808D080280AD0EA
:10AD8000C02810D10BE0A8A005F0A2FD0BE0ACA0FC
:10AD900005F09EFD07E0B0A005F09AFD03E0B4A029
:10ADA00005F096FD00BF00BFE07920210840002893
:10ADB00005D0022807D1B4A005F08AFD03E0B6A0B3
:10ADC00005F086FD00BF00BFE0798007800F0028F6
:10ADD00006D0012808D002280AD0032810D10BE0A1
:10ADE000B1A005F075FD0BE0B4A005F071FD07E022
:10ADF000B7A005F06DFD03E0BAA005F069FD00BF46
:10AE000000BF207A45066D0E2A46FF329B32294646
:10AE1000B9A005F05DFD607A80210840002805D0CA
:10AE2000802807D1BCA005F053FD03E0BFA005F0CA
:10AE30004FFD00BF00BF607A40210840002802D0CB
:10AE4000402808D103E0BEA005F042FD03E0BFA00A
:10AE500005F03EFD00BF00BF607A202108400028B9
:10AE600005D0202807D1BCA005F032FD03E0BDA02D
:10AE700005F02EFD00BF00BF607A102108400028B9
:10AE800005D0102807D1BAA005F022FD03E0BBA031
:10AE900005F01EFD00BF00BF70BD0000C4A3BFE9E8
:10AEA000B5D8D6B73A307825303258253032580DDB
:10AEB0000A000000C4A3BFE9CDF8C2E749443A3014
:10AEC00078253032580D0A00B2A8CCD8C2CA203139
:10AED0003230300D0A000000B2A8CCD8C2CA2032ED
:10AEE0003430300D0A000000B2A8CCD8C2CA2034D9
:10AEF0003830300D0A000000B2A8CCD8C2CA2039C0
:10AF00003630300D0A000000B2A8CCD8C2CA2031B9
:10AF1000393230300D0A0000B2A8CCD8C2CA203372
:10AF2000383430300D0A0000B2A8CCD8C2CA20355F
:10AF3000373630300D0A0000B2A8CCD8C2CA203152
:10AF400031353230300D0A0038CAFDBEDDCEBB20AF
:10AF5000CEDED0A3D1E92031CDA3D6B9CEBB0D0A28
:10AF60000000000038CAFDBEDDCEBB20C6E6D0A37F
:10AF7000D1E92031CDA3D6B9CEBB0D0A0000000027
:10AF800038CAFDBEDDCEBB20C5BCD0A3D1E920317F
:10AF9000CDA3D6B9CEBB0D0A00000000BFD5D6D0D8
:10AFA000CBD9C2CA20302E334B0D0A00BFD5D6D024
:10AFB000CBD9C2CA20312E324B0D0A00BFD5D6D014
:10AFC000CBD9C2CA20322E344B0D0A00BFD5D6D001
:10AFD000CBD9C2CA20342E384B0D0A00BFD5D6D0EB
:10AFE000CBD9C2CA20392E364B0D0A00BFD5D6D0D8
:10AFF000CBD9C2CA2031392E324B0D0A00000000D5
:10B00000BFD5D6D0CBD9C2CA2033382E344B0D0A87
:10B0100000000000BFD5D6D0CBD9C2CA2036322E10
:10B02000354B0D0A00000000CAFDBEDDB7D6B0FCEE
:10B03000B4F3D0A1A3BA323430D7D6BDDA0D0A00AA
:10B04000CAFDBEDDB7D6B0FCB4F3D0A1A3BA31328D
:10B0500038D7D6BDDA0D0A00CAFDBEDDB7D6B0FCC2
:10B06000B4F3D0A1A3BA3634D7D6BDDA0D0A0000A6
:10B07000CAFDBEDDB7D6B0FCB4F3D0A1A3BA33325B
:10B08000D7D6BDDA0D0A0000C6F4D3C352535349D4
:10B09000B9A6C4DC0D0A0000BDFBD3C3525353490B
:10B0A000B9A6C4DC0D0A0000B7A2C9E4B9A6C2CA99
:10B0B00020323264626D0D0A00000000B7A2C9E4BC
:10B0C000B9A6C2CA20313764626D0D0A00000000C3
:10B0D000B7A2C9E4B9A6C2CA20313364626D0D0AB1
:10B0E00000000000B7A2C9E4B9A6C2CA203130648A
:10B0F000626D0D0A00000000D0C5B5C03A30782559
:10B100003032582020B6D4D3A6C6B5C2CA25644D65
:10B11000487A0D0A00000000C6F4D3C352535349C5
:10B12000D7D6BDDAB9A6C4DC0D0A0000BDFBD3C377
:10B1300052535349D7D6BDDAB9A6C4DC0D0A000074
:10B14000CDB8C3F7B4ABCAE40D0A0000B6A8B5E3A6
:10B15000B4ABCAE40D0A0000C6F4D3C3D6D0BCCC4D
:10B160000D0A0000BDFBD3C3D6D0BCCC0D0A000035
:10B17000C6F4D3C34C42540D0A000000BDFBD3C338
:10B180004C42540D0A00000010B5FFF723FD17A034
:10B1900005F09EFB642000F059F800281AD018A092
:10B1A00005F096FB00BF00BF00BF00BF00BFBFF3AC
:10B1B0004F8F00BF00BF00BF18481949C86000BFCB
:10B1C00000BF00BFBFF34F8F00BF00BF00BF00BF75
:10B1D00000BFFDE713A005F07BFB17A005F078FB8F
:10B1E00000F06AF8C820FDF741FD10BDD7BCB1B82A
:10B1F000B8B4CEBB4C6F7261C4A3BFE90D0A0000A6
:10B20000B8B4CEBB4C6F7261C4A3BFE9CAA7B0DCAF
:10B21000A3ACD6D8C6F40D0A000000000400FA055D
:10B2200000ED00E04C6F7261C4A3BFE9B8B4CEBBBF
:10B23000B3C9B9A60D0A0000D7BCB1B8C9E8D6C3D6
:10B240004C6F7261C4A3BFE90D0A000010B504463B
:10B25000002202211448FDF714FEC820FDF706FD68
:10B26000012202211048FDF70CFE0DE06420FDF7DD
:10B27000FDFC80210D48FDF7FBFD012800D108E011
:10B2800021460BA005F024FB2046611E0CB20028CD
:10B29000ECD100BF07A005F01BFB002C01DC012056
:10B2A00010BD0020FCE70000001400500004005016
:10B2B000256420000D0A00000EB5C021684601700B
:10B2C0000021417009218170214801786846C170D0
:10B2D0001F484178684601711D4881786846417170
:10B2E0001B48C0781A49097908431949497901432B
:10B2F00068468171164880791549C979084314490F
:10B30000097A01436846C1711148417A6846017261
:10B310000F48807A0E49C97A08430D49097B0843D2
:10B320000B49497B08430A49897B08430849C97B83
:10B330000143684641720648017C684681720448B0
:10B34000417C6846C1720C2105F002FC0EBD000074
:10B3500000000020F8B507460C461546FFF797FA9F
:10B36000A020FFF766FAFFF7C2FA3846FFF761FA46
:10B37000FFF7BDFAFFF78BFAA120FFF75AFAFFF7A4
:10B38000B6FA002605E00120FFF7E6F9A055701C8B
:10B3900086B2681EB042F6DC0020FFF7DDF9691EB8
:10B3A0006054FFF78CFA0520FDF760FCF8BD70B51E
:10B3B00005460C46FFF76BFAA020FFF73AFAFFF7B5
:10B3C00096FA2846FFF735FAFFF791FA2046FFF77D
:10B3D00030FAFFF78CFAFFF772FA0520FDF746FC0A
:10B3E00070BD0000F8B50020834948800120486006
:10B3F0000A2088608148FBF7C5FE061D7F48403063
:10B40000FBF7C0FE3618B61C7C488030FBF7BAFE4E
:10B4100031187948C16080687749C968441810219B
:10B420007748017000BF2046E117490E0918C9117D
:10B43000C901651AE117490E0918CC11002C01DD6C
:10B44000802005436C4842686D4885546A484068CE
:10B45000401C69494860002CE5DC00220846406831
:10B4600067490A54042264484068401C0A544D222B
:10B4700061484068801C0A5451225F484168C91CD9
:10B480005F48425454225C484068001D5C490A549D
:10B4900059484068401D0A54042257484068801D9E
:10B4A0000A54C22254484068C01D0A54002252481F
:10B4B000416808315248425464224F48416809317A
:10B4C0004F4842544D48FBF75DFE0004020E4A48C7
:10B4D00040680A304A490A544848FBF753FEC2B252
:10B4E000454840680B3046490A544448FBF74AFE39
:10B4F0000646414949680C31414A881832463F495D
:10B50000FBF708FE3D484030FBF73CFE0004060E0A
:10B510003A48FBF737FE384949680C31411838483A
:10B520004654C038FBF72EFEC6B23448FBF72AFE5D
:10B53000314949680D31411831484654C038FBF74C
:10B5400021FE07462D48FBF71DFE2B4949680E31A9
:10B5500041182B480E183A460146C0393046FBF7D1
:10B56000D9FD26488030FBF70DFE0004060E234867
:10B57000FBF708FE204949680E3147181F48403044
:10B58000FBF700FE39181E4846548038FBF7FAFDD9
:10B59000C6B21A48FBF7F6FD174949680F3147183C
:10B5A00016484030FBF7EEFD3918154846548038F0
:10B5B000FBF7E8FD00901148FBF7E4FD0E494968F0
:10B5C000103147180D484030FBF7DCFD39180C48A6
:10B5D0000E18014680393046009AFBF79BFD06485D
:10B5E0004068054A92688018034AD2688118044866
:10B5F00005F0F0F9F8BD0000684A00206847002017
:10B6000068480020F0B58DB00546012407E0285DAC
:10B6100080210840002801D1E7B202E0641C052C1B
:10B62000F5DB00BF00263C4628E0601EFCF704F86E
:10B6300002460B46019100900020184904F026FCB8
:10B6400005910490295D4806400EFBF7F5FF039134
:10B650000290059B049AFBF787FF099108903046FA
:10B66000FBF7EAFF07910690099B089AFBF7CAFED1
:10B670000B910A90FBF7F4FF0646641E002CD4DC05
:10B68000012149020648FBF75EFDB21EF81C411974
:10B690000348FBF73FFD0DB0F0BD00000000604027
:10B6A000384C002010B5C0210348017000214170C2
:10B6B000022105F08FF910BD68480020F7B582B06F
:10B6C000054616460121324841602846FBF75AFDDF
:10B6D000801C2F4988600846C6608168C0680C18C5
:10B6E00030212C48017000BF2046E117490E09188F
:10B6F000C911C901671AE117490E0918CC11002CAC
:10B7000001DD8020074322484268224887542048B0
:10B710004068401C1E494860002CE5DC2846FBF7C9
:10B7200031FD0004020E1A4840681A490A5428469E
:10B73000FBF728FDC2B216484168491C154842541F
:10B740002846FBF71FFD124901904968891C114AE0
:10B7500088182946019AFBF7DDFC2846FBF712FD05
:10B760000B494968891C41180A480818324601905B
:10B770000399FBF7CFFC06484068054A9268801899
:10B78000034AD2688118034805F024F905B0F0BDDA
:10B79000684A002068480020F7B582B00646174680
:10B7A0000120484948603046FBF7ECFC001D454944
:10B7B00088600846C7608168C0680C18322142481A
:10B7C000017000BF2046E117490E0918C911C901CF
:10B7D000611A0191E117490E0918CC11002C03DD03
:10B7E00080210198084301900198C1B23548426810
:10B7F0003548815433484068401C32494860002C29
:10B80000E0DC3046FBF7BEFC0004020E2D48406829
:10B810002D490A543046FBF7B5FCC2B229484068AE
:10B82000401C29490A543046FBF7ACFC0546254923
:10B830004968891C244A88182A463146FBF76AFC65
:10B840003046FBF79FFC1F494968891C41181E4878
:10B850001C4A5588EA17120E52191204120E42544D
:10B860003046FBF78FFC17494968C91C4118164838
:10B87000144A5588EA17120E521912121202AA1A05
:10B88000425410484088401C0E4948803046FBF71F
:10B8900079FC0C494968091D41180B480D183A46B6
:10B8A00028460399FBF736FC06484068054A92682B
:10B8B0008018044AD2688118034805F08BF805B057
:10B8C000F0BD0000684A002068480020F7B582B04B
:10B8D0000646012054494860022088600020C86064
:10B8E000002409E0A1018819FBF74CFC4E49C96806
:10B8F00040184D49C860641C03988442F2DB4A48F2
:10B90000C16803984200801808184749C860084673
:10B910008168C0680D1882214448017000BF284624
:10B92000E917490E0918C911C9016F1AE917490E1B
:10B930000918CD11002D01DD802007433A484268E7
:10B940003A48875438484068401C37494860002DC1
:10B95000E5DC4888C117090E091809040B0E3249A5
:10B960004968324A535430494888C117090E0918AA
:10B9700009120902411ACBB22B494968491C535498
:10B9800029484088401C81B2274841800027002474
:10B990003AE0A1018819FBF7F5FB0004010E2248EB
:10B9A0004068801CC21921488154A1018819FBF705
:10B9B000E9FBC1B21C484068C01CC2191B48815435
:10B9C000A1018819FBF7DEFB0190A001811916483F
:10B9D0004068001DC219154813181846019AFBF754
:10B9E00099FBA1018819FBF7CDFB0F494968091D97
:10B9F0004018C2190D4804998154A1018819FBF718
:10BA0000C1FBC01CC719641C03988442C1DB0648F3
:10BA10004268806812180448C0681118034804F08E
:10BA2000D9FF05B0F0BD0000684A0020684800203A
:10BA30007047704710B5124812490860FF20053062
:10BA4000486000210F48816007210902C16002217E
:10BA5000016101214161490281610021C1610162ED
:10BA6000416281620721C162FDF7D8FE0548006886
:10BA700000684021084303490968086010BD0000C0
:10BA8000003800400447002030B504460D4600232E
:10BA900005E0FF2000F024F8E054581C83B2AB42CC
:10BAA000F7DB30BD00BF0D48006880680221084008
:10BAB00040080028F7D0FF2008490968087300BF34
:10BAC000064800688068C007C00F01214840484010
:10BAD0000028F5D001480068007B7047044700202B
:10BAE000014600BF0C4800688068022210404008F0
:10BAF0000028F7D008480068017300BF06480068B6
:10BB00008068C007C00F0122504050400028F5D087
:10BB100001480068007B70470447002030B50446A8
:10BB20000D46002304E0E05C00F006F8581C83B2E8
:10BB3000AB42F8DB30BD000000BF0E4909688968E0
:10BB40000222114049080029F7D00A490968087300
:10BB500000BF084909688968C907C90F0122514017
:10BB600051400029F5D003490968097B024A117048
:10BB700070470000044700201200002070B5044602
:10BB80000D461646002305E0E05CFFF7A9FFE854E8
:10BB9000581C83B2B342F7DB70BD704710B5142157
:10BBA0000848FBF7D0FAFF2151310748FBF7CBFAE1
:10BBB000A8210648FBF7C7FA30210548FBF7C3FA6E
:10BBC00010BD00003000002060010020480000206F
:10BBD000B002002010B5FDF761F910BD014802491F
:10BBE000886070470070000800ED00E010B5044662
:10BBF0000749084881611830446000218160C160B4
:10BC000001610821416100218161FEF736FA10BD12
:10BC100000380140E003002003B5ABB0CCA12B9865
:10BC2000FBF79CFA002805D0CCA004F051FED0A070
:10BC300004F012FFD2A12B98FBF790FA00280AD04B
:10BC4000D3A004F045FED64800880246D5490390AB
:10BC5000D5A004F001FFDCA12B98FBF77FFA0028A8
:10BC60000DD0DBA004F034FEFFF798FFDC4800683D
:10BC7000012189070843DA490860FFF7B3FBD9A11E
:10BC80002B98FBF76BFA002804D0D8A004F020FE14
:10BC900003F09EFA2B98007820284ED1D0480068F7
:10BCA000012189070840002847D0D5A004F010FEE4
:10BCB0002B98C078030003F010FA060421262B30DD
:10BCC000353AD4A004F004FEC548006801214907B4
:10BCD0000843C349086001220721B1481030FFF72B
:10BCE000F5FDFDF7D5F8BE494860FDF7D1F8BC4930
:10BCF000C860FDF7CDF8BA4908611DE0CAA004F09C
:10BD0000E7FD03F065FAD3A004F0E2FD03F060FA6A
:10BD1000DCA004F0DDFD03F05BFAE4A004F0D8FD44
:10BD200003F056FAECA004F0D3FD03F051FAF2A0B0
:10BD300004F0CEFD03F04CFA00BF2B980078902859
:10BD400032D1A748006801214907084000282BD0BC
:10BD5000F2A004F0BDFD00202A9019E02A98001DF1
:10BD60002B99085C002802D0012807D100E000BF11
:10BD70002A99491CEEA004F0ABFD04E0F2A004F007
:10BD8000A7FD03F025FA00BF2A98401C80B22A9034
:10BD90002C98001F2A998842E0DCF3A004F098FD5B
:10BDA000F9A1FB48FCF74AFA2B980078D02810D16B
:10BDB0008B480068012149070840002809D0F5A0F8
:10BDC00004F086FD864800680121090788438449FC
:10BDD00008602B980078402829D18148006801210B
:10BDE00049070840002822D0F0A004F071FD2B98EC
:10BDF000C07803902B98807802900146F0A0039AB7
:10BE000004F066FD764800680121C9060840002854
:10BE10000DD073480068884371490860F348C06AD0
:10BE2000002804D1F2A004F053FD03F0D1F92B98BF
:10BE30000078302801D001F0D9FA69480068012162
:10BE4000890708400028F6D0F1A004F041FDFDF775
:10BE50001FF8634948602C992B98FFF7D3FBF449EE
:10BE6000F4A004F035FDF5A1F148FBF777F90028BF
:10BE70006AD0F7A1EE48FBF771F904900498002806
:10BE800063D0DA48001D01460831031F021D0091EE
:10BE90000190F3490498FBF77DF9042856D1D34863
:10BEA000006801460390EFA004F012FDCF484068FF
:10BEB00001460390F1A004F00BFDCC4880680146D8
:10BEC0000390F5A004F004FDC8490C31F9A004F07A
:10BED000FFFC0020C549C862414800680121C9062D
:10BEE00008433F490860FCF7D3FF3D498860BF48DD
:10BEF000808DC0B2039002F0AFFFBC488068039011
:10BF0000C017010E03980818001201020398401A86
:10BF10000BD0B64880680390C017010E039808182C
:10BF20000012401CB149486209E0B04880680390A3
:10BF3000C017010E039808180012AC494862AB48BC
:10BF4000406A01460390C1E1DAE1D6E1D1E10000A7
:10BF500041542B4349504D55583D3000B9D8B1D5C7
:10BF6000B6E0C2B7C1ACBDD3B3C9B9A60D0A0000D3
:10BF700041542B4349504D4F44453D310D0A00007B
:10BF800041542B4349504D4F44453D310000000082
:10BF9000CDB8B4ABC4A3CABDB3C9B9A60D0A0000DD
:10BFA000684A00202848002041542B4349505354EC
:10BFB0004152543D22544350222C222573222C22DC
:10BFC0002564220D0A000000434F4E4E45435400A5
:10BFD000C1ACBDD3C9CFB7FECEF1C6F70D0A000084
:10BFE00030000020434C4F53450D0A00B7FECEF100
:10BFF000C6F7B6CFBFAAA3ACD6D8C6F40D0A0000C8
:10C00000BDD3CAD5B5BD434F4E4E41434BB1A8CE6B
:10C01000C40D0A00434F4E4E454354B1A8CEC4B39D
:10C02000C9B9A60D0A000000C1ACBDD3D2D1BEDC97
:10C03000BEF8A3ACB2BBD6A7B3D6B5C4D0ADD2E9D7
:10C04000B0E6B1BEA3ACD7BCB1B8D6D8C6F40D0A21
:10C0500000000000C1ACBDD3D2D1BEDCBEF8A3ACA1
:10C06000B2BBBACFB8F1B5C4BFCDBBA7B6CBB1EAAE
:10C07000CAB6B7FBA3ACD7BCB1B8D6D8C6F40D0AC4
:10C0800000000000C1ACBDD3D2D1BEDCBEF8A3AC71
:10C09000B7FECEF1B6CBB2BBBFC9D3C3A3ACD7BC3E
:10C0A000B1B8D6D8C6F40D0A00000000C1ACBDD3AB
:10C0B000D2D1BEDCBEF8A3ACCEDED0A7B5C4D3C30C
:10C0C000BBA7C3FBBBF2C3DCC2EBA3ACD7BCB1B80C
:10C0D000D6D8C6F40D0A0000C1ACBDD3D2D1BEDCA7
:10C0E000BEF8A3ACCEB4CADAC8A8A3ACD7BCB1B86A
:10C0F000D6D8C6F40D0A0000C1ACBDD3D2D1BEDC87
:10C10000BEF8A3ACCEB4D6AAD7B4CCACA3ACD7BC43
:10C11000B1B8D6D8C6F40D0A00000000BDD3CAD508
:10C12000B5BD53554241434BB1A8CEC40D0A0000E2
:10C13000B5DA2564B8F6546F706963B6A9D4C4B390
:10C14000C9B9A60D0A000000B5DA2564B8F6546F27
:10C15000706963B6A9D4C4CAA7B0DCA3ACD7BCB11C
:10C16000B8D6D8C6F40D0A00CDACB2BDB5B1C7B0D3
:10C17000CDF8B9D8C9E8B1B8B9CCBCFEB0E6B1BE0B
:10C18000BAC50D0A00000000474154455741590007
:10C190003F010020BDD3CAD5B5BD50494E475245D9
:10C1A0005350B1A8CEC40D0A00000000BDD3CAD5BB
:10C1B000B5BD50554241434BB1A8CEC40D0A000055
:10C1C000B5C8BCB63120B1EACAB6B7FB3078253065
:10C1D000327825303278B5C4B1A8CEC4A3ACB7A2AA
:10C1E000CBCDB3C9B9A60D0A00000000B0020020F3
:10C1F000D7BCB1B8D6D8C6F4D3C9426F6F744C6FF0
:10C2000061646572B8FCD0C2B9CCBCFE0D0A0000F6
:10C21000BDD3CAD5B5BDB7FECEF1C6F7CDC6CBCD21
:10C22000B5C4B5C8BCB630B1A8CEC40D0A00000074
:10C23000384C002025730D0A00000000226D6F6449
:10C24000756C65223A2247415445574159220000F6
:10C250007B22636F6465223A223130303022000045
:10C26000042A01084F5441C9FDBCB6B5C4B9CCBCC1
:10C27000FEB1E0BAC5A3BA25640D0A004F5441C906
:10C28000FDBCB6B5C4B9CCBCFECEC4BCFECAFDA3D1
:10C29000BA25640D0A0000004F5441C9FDBCB6B573
:10C2A000C4B9CCBCFED7DCB4F3D0A1A3BA25640DCD
:10C2B0000A0000004F5441C9FDBCB6B5C4B0E6B198
:10C2C000BEBAC5A3BA25730D0A000000E3A004F0AE
:10C2D000FFFA0120EC4988620846806A0146039013
:10C2E000EAA004F0F5FA0021FF200130FBF754FF2B
:10C2F00006E0ECA004F0ECFA02E0F4A004F0E8FAA6
:10C30000FAA1FE48FAF72AFF00287BD0FC49FB4837
:10C31000FAF724FF04900498002874D0DA48001D2E
:10C3200001460831031F021D00910190F549049850
:10C33000FAF730FF042872D1D34800680146039011
:10C34000EF48143004F0C4FACF4840680146039027
:10C35000EB482C3004F0BCFACB48806801460390CF
:10C36000E748483004F0B4FAC7490C31E448643077
:10C3700004F0AEFA0120C449C862E3480068012114
:10C38000C9060843E0490860FCF782FDDE49886081
:10C39000BD48808DC0B2039002F05EFDBA4880684F
:10C3A0000390C017010E03980818001201020398A9
:10C3B000401A0BD0B44880680390C017010E039850
:10C3C00008180012401CB049486209E0AE48806875
:10C3D0000390C017010E039808180012AA4948627A
:10C3E000A948406A014603909CA004F071FA01201C
:10C3F000A54988620846406A03900846806A029010
:10C40000014602E012E00EE009E0C0A0039A04F049
:10C410005FFA0021FF200130FBF7BEFE06E0C2A05C
:10C4200004F056FA02E0CAA004F052FAD1A1B348CF
:10C43000FAF794FE00287DD0B149B048FAF78EFE95
:10C4400004900498002876D08F48001D01460831DA
:10C45000031F021D00910190CA490498FAF79AFE41
:10C46000042872D18848006801460390A44814301B
:10C4700004F02EFA8448406801460390A0482C300E
:10C4800004F026FA80488068014603909C484830B2
:10C4900004F01EFA7C490C319948643004F018FA13
:10C4A00002207949C862984800680121C9060843FA
:10C4B00095490860FCF7ECFC934988607248808DD0
:10C4C000C0B2039002F0C8FC6F4880680390C017A8
:10C4D000010E03980818001201020398401A0BD0AD
:10C4E000694880680390C017010E0398081800126D
:10C4F000401C6549486209E0634880680390C017A2
:10C50000010E0398081800125F4948625E48406AAD
:10C510000146039051A004F0DBF901205A498862DA
:10C520000846406A03900846806A0290014677A058
:10C53000039A02E010E00CE007E004F0C9F90021E2
:10C54000FF200130FBF728FE06E08FA004F0C0F9C1
:10C5500002E098A004F0BCF99EA16848FAF7FEFD3D
:10C56000002877D066496548FAF7F8FD04900498EA
:10C57000002870D04448001D01460831031F021DE9
:10C580000091019097490498FAF704FE042863D1BA
:10C590003D480068014603905948143004F098F96A
:10C5A000394840680146039055482C3004F090F912
:10C5B00035488068014603905148483004F088F9B6
:10C5C00031490C314E48643004F082F903202E4981
:10C5D000C8624D4800680121C90608434A490860FD
:10C5E000FCF756FC484988602748808DC0B203900C
:10C5F00002F032FC244880680390C017010E0398B3
:10C600000818001201020398401A0BD01E488068D7
:10C610000390C017010E039808180012401C1A4915
:10C62000486209E0184880680390C017010E03981B
:10C6300008180012144948621348406A01460390E2
:10C6400006A004F045F901200F4988620846406AB7
:10C650000390C9E0DDE0D9E0D4E00000C3BFB4CE70
:10C66000CFC2D4D8323536D7D6BDDACAFDBEDDA3A7
:10C67000ACB9B2BCC6D0E8D2AACFC2D4D8A3BA252E
:10C6800064B4CE0D0A000000B0020020D7BCB1B8DF
:10C690004F5441CFC2D4D8B9CCBCFEB5DA2564B46E
:10C6A000CE0D0A00CCE1C8A1CDF8B9D84F5441CF86
:10C6B000C2D4D8B9CCBCFEC3E8CAF6D0C5CFA2CA92
:10C6C000FDBEDDCAA7B0DC0D0A000000B6A8CEBBD7
:10C6D000CDF8B9D84F5441C3FCC1EED0C5CFA2C6E6
:10C6E000F0CABCB4A6CAA7B0DC0D0A00226D6F6404
:10C6F000756C65223A22535542312200384C002095
:10C7000050C20008B827010830000020D7BCB1B8DB
:10C710004F5441CFC2D4D8B9CCBCFEB5DA25642F72
:10C720002564B4CE0D0A0000CCE1C8A1C9E8B1B8B7
:10C7300031204F5441CFC2D4D8B9CCBCFEC3E8CAD3
:10C74000F6D0C5CFA2CAFDBEDDCAA7B0DC0D0A0077
:10C75000B6A8CEBBD7D3C9E8B1B831204F5441C336
:10C76000FCC1EED0C5CFA2C6F0CABCB4A6CAA7B061
:10C77000DC0D0A00226D6F64756C65223A225355F8
:10C78000423222007C280108CCE1C8A1D7D3C9E8F5
:10C79000B1B832204F5441CFC2D4D8B9CCBCFEC3BB
:10C7A000E8CAF6D0C5CFA2CAFDBEDDCAA7B0DC0D6F
:10C7B0000A000000B6A8CEBBD7D3C9E8B1B8322072
:10C7C0004F5441C3FCC1EED0C5CFA2C6F0CABCB421
:10C7D000A60D0A00226D6F64756C65223A225355CE
:10C7E00042332200402901080846806A029001462F
:10C7F000EE48039A04F06CF80021FF200130FBF7AB
:10C80000CBFC06E0EAA004F063F802E0F3A004F039
:10C810005FF8FBA1FE48FAF7A1FC00287ED0F8A142
:10C82000FB48FAF79BFC049004980028F6D0F9A086
:10C8300004F04EF80498807B01020498C07B08182D
:10C84000801C2790802107A8FAF77DFC2798801E7E
:10C85000024603900499103107A8FAF75BFC05AB78
:10C8600006AAF14907A8FAF795FC02287ED1059996
:10C8700006984018401E02460390ECA0069904F06A
:10C8800027F806980390C017010E039808180012A5
:10C89000EC49898D0902401880B2029027980E3029
:10C8A000049940180190029902F0B0FBE548806AB3
:10C8B000401CE44988620846806A496A884231DC43
:10C8C000E0488168806A401E0002081A0390C01781
:10C8D000010E039808180012002803DDFF20013024
:10C8E000299007E0D7480189008D401E0002081AF0
:10C8F00080B22990D348008D401E0006000C28907D
:10C90000D048406A0390CF48806A02900146A74809
:10C91000039A03F0DDFF2899299800E068E2FBF70D
:10C920003BFC70E2C748C06A002806D0012828D026
:10C9300002287DD0032823D127E1C3A003F0C8FF3C
:10C940001821C748FAF7FFFBBE480C30FAF71AFC6B
:10C950000246BC490C310390C148FAF7DBFBB948E9
:10C960008068BF494F398866BE4800E041E2C8662A
:10C9700070220020FBF77AFFBB49B948FBF75EFC49
:10C9800036E2BAA003F0A4FF1821BF48FAF7DBFB98
:10C99000AC480C30FAF7F6FB0246AA490C3103907A
:10C9A000B948FAF7B7FBA74880680390C017410E53
:10C9B00003980818C011C1010398401A0BD0A14870
:10C9C00080680390C017410E03980818C011401CDE
:10C9D0009C49486209E09B4880680390C017410E5B
:10C9E00003980818C011974948629648406A014662
:10C9F0000390A6A003F06CFF9248806A0146039062
:10CA0000ADA003F065FF01208E4988620102B048A5
:10CA1000FAF799FB0020AE490870012048701520F4
:10CA200088705A20C870A52008718648806A00E086
:10CA300029E00390C017010E039808180004000EA7
:10CA4000A34948717F48806A0390C017010E03987C
:10CA50000818001201020398401A9D49887179480C
:10CA6000808D01047748806A401EC001081880222A
:10CA7000014603909648C01D02F04CFA8721944865
:10CA800004F066F8B4E193A003F022FF18217E4879
:10CA90007030FAF758FB6B480C30FAF773FB02461C
:10CAA00068490C31039078487030FAF733FB6548D9
:10CAB00080680390C017410E03980818C011C10187
:10CAC0000398401A0BD05F4880680390C017410E4E
:10CAD00003980818C011401C5A49486209E0594897
